:030000000200B04B
:0C00B000787FE4F6D8FD7581120200F79D
:1001D000C0F9A4B0999282F880908883C6A1868ED7
:1001E000BFFFC0F9A4B0999282F880900102040880
:1001F00010204080C0F9A4B0999282F88090BF8806
:01020000C637
:0F029200010D07010E00010F0001100001110006
:040258007F327E0073
:10025C00E4FDFCC3ED9FEE6480F8EC6480985014D0
:10026C007B4D7A03EB1B70011AEB4A70F70DBD0046
:04027C00010C80DF12
:01028000225B
:10019700E5A0541F4480F5A07580FF53A01FE5A07C
:1001A700541F44A0F5A05380AF53A01FE5A0541FD0
:1001B70044C0F5A07580FF53A01FE5A0541F44E07D
:0901C700F5A07580FF53A01F2272
:080003008B088A09890A8D0BA4
:10000B00E4F50CC37407950CFFE50BA807088002F9
:10001B00C313D8FC30E04AE5A0541F44E0F5A075AB
:10002B0080FFE5A0541F44C0F5A0AF0C7401A807D6
:10003B00088002C333D8FCF5807F017E0012025C7E
:10004B00E5A0541F44E0F5A0AB08AA09A90A850C4A
:10005B00827583001202019001F493F5807F018079
:10006B0034E5A0541F44E0F5A07580FFE5A0541FB4
:10007B0044C0F5A0AF0C7401A807088002C333D8A5
:10008B00FCF5807F017E0012025CE5A0541F44E06A
:10009B00F5A07580FF12025C050CE50CD39407509C
:0400AB000302000E3E
:0100AF00222E
:10022E008F12A9057F017E0012025CE5A0541F44C7
:10023E00C0F5A0E5129001EC93F58075A0E0E99071
:0A024E0001D093F5807F0102025CED
:10028100D2B3D2B2D2B1D2B0D2B4D2B5D2C2D2C428
:01029100224A
:10013C00D2B4D2B5D2C2D2C420C41212025820C436
:10014C0007E4FDAF0D12022E20C43F80FB20C2122B
:10015C0012025820C2077D01AF0D12022E20C22AB6
:10016C0080FB20B51212025820B5077D02AF0D128C
:10017C00022E20B51580FB20B41012025820B407B3
:0B018C007D03AF0D12022E30B4FD22E7
:0A02A200120281C2B012013C80F686
:1000BC000202A2E493A3F8E493A34003F68001F2B6
:1000CC0008DFF48029E493A3F85407240CC8C33345
:1000DC00C4540F4420C8834004F456800146F6DF14
:1000EC00E4800B0102040810204080900292E47E10
:1000FC00019360BCA3FF543F30E509541FFEE49309
:10010C00A360010ECF54C025E060A840B8E493A3CF
:10011C00FAE493A3F8E493A3C8C582C8CAC583CAFA
:10012C00F0A3C8C582C8CAC583CADFE9DEE780BEB2
:0102A100005C
:10020100BB010CE58229F582E5833AF583E02250B2
:1002110006E92582F8E622BBFE06E92582F8E222FC
:0D022100E58229F582E5833AF583E4932216
:00000001FF
